:10000000EEEF00F00000000000EF00F00000000044
:0A0010000000000000000000F3D71C
:10001C000B6A0A6A096A00500402F4CF09F0F3CFA4
:10002C0008F001500502F4CF0BF0F3CF0AF00050AA
:10003C000502F3500926F4500A22E86A0B220150FB
:10004C000402F3500926F4500A22E86A0B2208C075
:10005C0000F009C001F00AC002F00BC003F012005E
:10006C00CB50010F006E016A000E01223DC004F05E
:10007C00000E056ECDDF060E026E00C004F001C04E
:10008C0005F0025005E005320432059EFF0FFAD749
:10009C00040E016E04C000F0015004E00036009024
:1000AC00FF0FFBD7300E0014036E04C000F005C028
:1000BC0001F001320032019E01320032019E00C07B
:0C00CC00BEFF0F0EBD160350BD12120047
:0800D800BE6ABD98BD9A12003A
:0A00E0009494CA840C0EBD121200A5
:0800EA009484F00EBD16120013
:1000F200CA90CA92520ECB6EEEDF7F0E3D6EB5DF16
:100102002D6A2E6A000E2E5C02E1080E2D5C25E29D
:10011200E6DF030E0C6E2F0E0D6E0D2EFED70C2E8B
:10012200FCD7E2DF3CA00CD0070E0C6E910E0D6ED8
:100132000D2EFED70C2EFCD700003C323C9E0AD07E
:10014200030E0C6E2F0E0D6E0D2EFED70C2EFCD74D
:0E0152003C323C9E2D4A2E2AD5D7C6DF120025
:10016000BFDF200E0C6E290E0D6E0D2EFED70C2E4D
:10017000FCD700000000B9DF200E0C6E290E0D6EBA
:0E0180000D2EFED70C2EFCD700000000120042
:10018E000900F5CFE6FF0006FBE10106F9E11200DA
:10019E00CA90CA92520ECB6E98DF7F0E3D6E5FDF15
:1001AE0098DF240E0C6E0F0E0D6E0D2EFED70C2E3C
:1001BE00FCD794DF120E0C6E870E0D6E0D2EFED731
:0E01CE000C2EFCD73BC03CF08DDFC3DF1200CF
:1001DC0031EC01F00F0EC16E070EB46E928092825C
:1001EC00928492869494829480B007D0810E3B6E58
:1001FC00D0DF80B002D0AEDFFCD780B207D0420E89
:10020C003B6EC7DF80B202D0A5DFFCD780B407D02D
:10021C00C30E3B6EBEDF80B402D09CDFFCD780B631
:10022C0007D0240E3B6EB5DF80B602D093DFFCD72F
:04023C00DBD7FFD736
:1002620010EE15F0220E006E010E016E400EF66EBB
:0E027200020EF76E000EF86EC7EC00F01200E0
:0802400038003A0039003700D4
:080248003900370038003A00CC
:08025000370038003A003900C4
:020258000000A4
:08025A003A00390037003800BA
:020000040030CA
:0E000000000C1F1EFF8381FF0FC00FE00F409A
:00000001FF
