:04000000DFEF00F03E
:1000080000C015F0F2A402D08AD8F294F2A25CD013
:100018004DC049F04EC04AF04D6A4E6AD66A800E0D
:100028004C18006E800E005C02E1000E4B5C04E28E
:10003800070E4B6E000E4C6E000E4A1802E1030EBE
:1000480049181AE1360E4B24E16E000E4C20E26E80
:10005800300EE66E010E4B5E000E4C5A800E4C18A8
:10006800006E800E005C02E1000E4B5C04E2070E9D
:100078004B6E000E4C6E27D0000E4A1802E1060E99
:1000880049181AE1360E4B24E16E000E4C20E26E40
:10009800310EE66E010E4B5E000E4C5A800E4C1867
:1000A800006E800E005C02E1000E4B5C04E2070E5D
:1000B8004B6E000E4C6E07D0D66A070E4B6E000EC4
:0E00C8004C6E4D6A4E6AF29215C000F01100A7
:1000D6000B6A0A6A096A00500402F4CF09F0F3CFEA
:1000E60008F001500502F4CF0BF0F3CF0AF00050F0
:1000F6000502F3500926F4500A22E86A0B22015041
:100106000402F3500926F4500A22E86A0B2208C0BA
:1001160000F009C001F00AC002F00BC003F01200A3
:100126004D4A4E2A000E006E4E50005C02E14D50C4
:0C013600FF0803E24D6A4E6AD66A120010
:10014200CB50010F006E016A000E012253C004F071
:10015200000E056EBFDF060E026E00C004F001C085
:1001620005F0025005E005320432059EFF0FFAD772
:10017200040E016E04C000F0015004E0003600904D
:10018200FF0FFBD7300E0014036E04C000F005C051
:1001920001F001320032019E01320032019E00C0A4
:0C01A200BEFF0F0EBD160350BD12120070
:1001AE000900F5CFE6FF0006FBE10106F9E11200BA
:1001BE0057EC01F00F0EC16E070EB46E010E936E6A
:1001CE00819C819A81988196C10ED56ED66AF28EE7
:1001DE00F28CF28AF288F294F292F18EF19C3D50FA
:1001EE00361802E13DC046F03C50371802E13CC0E3
:1001FE0045F03B50381802E13BC044F03A503918F4
:10020E0002E13AC043F04350300A0BE14450300A49
:10021E0008E14550300A05E14650310A02E1819865
:10022E0081964350300A0CE14450300A09E14550A2
:10023E00310A06E14650300A03E18198818602D0E8
:10024E008188819680A404D0FF0E485CD8A0482AED
:10025E0080A604D048500008D8A0480648C053F0E5
:06026E0069DFBDD7FFD7D8
:1002AE0010EE16F0390E006E010E016E740EF66E23
:0E02BE00020EF76E000EF86ED7EC00F0120084
:080274005200510050004F0040
:08027C004F0052005100500038
:08028400510050004F00520030
:08028C0050004F005200510028
:090294002E2E2E2E2E2E2E2E00F1
:09029D002E2E2E2E2E2E2E2E00E8
:0102A60080D7
:0202A700000055
:0202A90007004C
:0202AB00000051
:020000040030CA
:0E000000000C1F1EFF8381FF0FC00FE00F409A
:00000001FF
